:020000040000fa
:080000000002040000000000f2
:020000040000fa
:040008007003000081
:020000040000fa
:04000c00700300007d
:020000040000fa
:040010007003000079
:020000040000fa
:040014007003000075
:020000040000fa
:040018007003000071
:020000040000fa
:04001c00700300006d
:020000040000fa
:040020007003000069
:020000040000fa
:040024007003000065
:020000040000fa
:040028007003000061
:020000040000fa
:04002c00700300005d
:020000040000fa
:040030007003000059
:020000040000fa
:04003400260300009f
:020000040000fa
:040038007003000051
:020000040000fa
:04003c00700300004d
:020000040000fa
:040040007003000049
:020000040000fa
:040044007003000045
:020000040000fa
:040048001e03000093
:020000040000fa
:04004c00700300003d
:020000040000fa
:040050007003000039
:020000040000fa
:040054007003000035
:020000040000fa
:040058007003000031
:020000040000fa
:04005c00fa020000a4
:020000040000fa
:040060007003000029
:020000040000fa
:040064007003000025
:020000040000fa
:040068007003000021
:020000040000fa
:04006c00700300001d
:020000040000fa
:040070007003000019
:020000040000fa
:040074007003000015
:020000040000fa
:040078007003000011
:020000040000fa
:04007c00700300000d
:020000040000fa
:040080007003000009
:020000040000fa
:040084007003000005
:020000040000fa
:040088007003000001
:020000040000fa
:04008c0070030000fd
:020000040000fa
:0400900070030000f9
:020000040000fa
:04009400460300001f
:020000040000fa
:0400980070030000f1
:020000040000fa
:04009c0070030000ed
:020000040000fa
:0400a00070030000e9
:020000040000fa
:0400a40070030000e5
:020000040000fa
:0400a80070030000e1
:020000040000fa
:0400ac0070030000dd
:020000040000fa
:0400b00070030000d9
:020000040000fa
:0400b40070030000d5
:020000040000fa
:0400b80070030000d1
:020000040000fa
:0400bc0070030000cd
:020000040000fa
:0400c00070030000c9
:020000040000fa
:0400c40070030000c5
:020000040000fa
:0400c80070030000c1
:020000040000fa
:0400cc0070030000bd
:020000040000fa
:0400d00070030000b9
:020000040000fa
:0400d40070030000b5
:020000040000fa
:0400d80070030000b1
:020000040000fa
:0400dc0070030000ad
:020000040000fa
:0400e00070030000a9
:020000040000fa
:0400e40070030000a5
:020000040000fa
:0400e80070030000a1
:020000040000fa
:0400ec00700300009d
:020000040000fa
:0400f0007003000099
:020000040000fa
:0400f4007003000095
:020000040000fa
:0400f8007003000091
:020000040000fa
:0400fc00700300008d
:020000040000fa
:040100007003000088
:020000040000fa
:040104007003000084
:020000040000fa
:040108007003000080
:020000040000fa
:04010c00700300007c
:020000040000fa
:040110007003000078
:020000040000fa
:040114007003000074
:020000040000fa
:040118007003000070
:020000040000fa
:04011c00700300006c
:020000040000fa
:040120007003000068
:020000040000fa
:040124007003000064
:020000040000fa
:040128007003000060
:020000040000fa
:04012c00700300005c
:020000040000fa
:040130007003000058
:020000040000fa
:040134007003000054
:020000040000fa
:040138007003000050
:020000040000fa
:04013c00700300004c
:020000040000fa
:040140007003000048
:020000040000fa
:040144007003000044
:020000040000fa
:040148007003000040
:020000040000fa
:04014c00700300003c
:020000040000fa
:040150007003000038
:020000040000fa
:040154007003000034
:020000040000fa
:040158007003000030
:020000040000fa
:04015c00700300002c
:020000040000fa
:040160007003000028
:020000040000fa
:040164007003000024
:020000040000fa
:040168007003000020
:020000040000fa
:04016c00700300001c
:020000040000fa
:040170007003000018
:020000040000fa
:040174007003000014
:020000040000fa
:040178007003000010
:020000040000fa
:04017c00700300000c
:020000040000fa
:040180007003000008
:020000040000fa
:040184007003000004
:020000040000fa
:040188007003000000
:020000040000fa
:04018c0070030000fc
:020000040000fa
:0401900070030000f8
:020000040000fa
:0401940070030000f4
:020000040000fa
:0401980070030000f0
:020000040000fa
:04019c0070030000ec
:020000040000fa
:0401a00070030000e8
:020000040000fa
:0401a40070030000e4
:020000040000fa
:0401a80070030000e0
:020000040000fa
:0401ac0070030000dc
:020000040000fa
:0401b00070030000d8
:020000040000fa
:0401b40070030000d4
:020000040000fa
:0401b80070030000d0
:020000040000fa
:0401bc0070030000cc
:020000040000fa
:0401c00070030000c8
:020000040000fa
:0401c40070030000c4
:020000040000fa
:0401c80070030000c0
:020000040000fa
:0401cc0070030000bc
:020000040000fa
:0401d00070030000b8
:020000040000fa
:0401d40070030000b4
:020000040000fa
:0401d80070030000b0
:020000040000fa
:0401dc0070030000ac
:020000040000fa
:0401e00070030000a8
:020000040000fa
:0401e40070030000a4
:020000040000fa
:0401e80070030000a0
:020000040000fa
:0401ec00700300009c
:020000040000fa
:0401f0007003000098
:020000040000fa
:0401f4007003000094
:020000040000fa
:0401f8007003000090
:020000040000fa
:0401fc00700300008c
:020000040000fa
:040200007003000087
:020000040000fa
:040204007003000083
:020000040000fa
:04020800700300007f
:020000040000fa
:04020c00700300007b
:020000040000fa
:040210007003000077
:020000040000fa
:040214007003000073
:020000040000fa
:04021800700300006f
:020000040000fa
:04021c00700300006b
:020000040000fa
:040220007003000067
:020000040000fa
:040224007003000063
:020000040000fa
:04022800700300005f
:020000040000fa
:04022c00700300005b
:020000040000fa
:040230007003000057
:020000040000fa
:040234007003000053
:020000040000fa
:04023800700300004f
:020000040000fa
:04023c00700300004b
:020000040000fa
:040240007003000047
:020000040000fa
:040244007003000043
:020000040000fa
:04024800700300003f
:020000040000fa
:04024c00700300003b
:020000040000fa
:040250007003000037
:020000040000fa
:040254007003000033
:020000040000fa
:04025800700300002f
:020000040000fa
:04025c00700300002b
:020000040000fa
:040260007003000027
:020000040000fa
:040264007003000023
:020000040000fa
:04026800700300001f
:020000040000fa
:04026c00700300001b
:020000040000fa
:040270007003000017
:020000040000fa
:040274007003000013
:020000040000fa
:04027800700300000f
:020000040000fa
:04027c00700300000b
:020000040000fa
:040280007003000007
:020000040000fa
:10040000ef0321000eff2c000e0188000000000009
:10041000000020000000e000020032000001200087
:100420002002880014000700af0007000000e00071
:1004300003003a0020d22100010020000200370012
:100440000000200001002000810f70000100320038
:100450000f000700000020000000e0000200320052
:100460000000020000000000dc06020000000000a6
:100470000040da000000fe00200020000000e00044
:1004800002003200100020009001880000000600e9
:10049000a1028800800478000000eb001f003700f4
:1004a000e284440054a0b4009905ba00e2844400f8
:1004b00054a0b4009906ba00e284440054a0b400e9
:1004c0000006eb00476fde00fd07b200ae018800ba
:1004d000636ce10003003a000ad801000000eb0061
:1004e0000e003700606ce10008003a00004deb00a0
:1004f0000a05e800020039003420ec000af0a000f0
:100500008b05e900f9ff3e00040037006168e10057
:10051000010032000086eb000b00070019c7ba008b
:100520000e04e0001905ba0003003a000a00e000da
:10053000dbff3a0000000600fe07b200ae028800b2
:100540008a047800f5ff37000cd0a300e20f4d00bd
:100550001c00390089027800354dba000a05e80010
:10056000020039003420ec000af0a0008b05e900fd
:100570000f003200254dba000a05e80002003900dc
:100580003420ec000af0a0008b05e90008003200de
:100590000c00e0000600320015cdba000a05e800a4
:1005a000020039003420ec000af0a0008b05e900bd
:1005b0008984e80054a0b4000b00e000e2ff3a0098
:1005c000000006009902ba00055d78008b05e9007d
:1005d000f7ff3200c82ade00055d78008b05e900d0
:1005e000f3ff32000c00e000f1ff320019ddba0029
:1005f000eeff3700801f78000000fa0001a8a90074
:1006000000188000a081880010188000b081880048
:1006100020188000c081880030188000d0818800b8
:1006200040188000e081880010c0b3000bf0b700d4
:100630000080fa004f007800004006000000fa0039
:100640000108a9000080fa00004006003600f8000a
:10065000809fbe00829fbe00849fbe00869fbe001a
:100660000000fa000068a900430b0700ba0c07005d
:100670000080fa004f03be004f02be004f01be00d3
:100680004f00be003600f900004006003600f800ba
:10069000809fbe00829fbe00849fbe00869fbe00da
:1006a0000000fa000368a90000808000118080002b
:1006b00061004000e08048000080880011808800d0
:1006c0007c0207000080fa004f03be004f02be000c
:1006d0004f01be004f00be003600f900004006008a
:1006e0000040da000000fe000000050003f0a20058
:1006f000889fbe008a9fbe008c1f780018010700eb
:100700001f0133006450e1004f0032006420e1001b
:100710005200320003826c0007003b000905d00044
:100720000306d000820f54000c065d000200390061
:1007300002003200890178000306780085825500a6
:1007400004003d000003fd008103fd008502ea0076
:100750008b854200840f720002003b006000100095
:10076000e08018006011b8000005eb007a28e10075
:100770000a00390006007800c75ddd00f707b20007
:10078000878075002d003700828171000a01780092
:10079000610560008180d1000080d3008502e900fe
:1007a000f9ff3b00060440008784480002003b003c
:1007b00060041400e0841c000988a30007003200d4
:1007c0008a81710082817100610164008904d10015
:1007d0000884d3008b05e800170037000978a300d0
:1007e00013003a000b00e000130034008b05e90011
:1007f0000804440089844c000a4474000978a3006a
:100800000d003a000b00e000070034008b05e90002
:100810000804440089844c0001003a000b002000c9
:100820000978a300f7ff32000001eb000200370057
:10083000828171000a0178008e0007000cf0a70089
:1008400001f0a000d70037006420e10002003a0068
:10085000838f6c00d70033000801be000200be0089
:10086000d0003700889fbe008a9fbe008c1f780092
:10087000bb000700c200330003866c006450e10037
:100880002e0032006420e100330032006150e100ac
:100890002f0032006120e1003100320085855500d3
:1008a000eb07b00009002000080420000500370015
:1008b0000804440089844c000a0031000603430008
:1008c00087834b000001530081815b00f8ff3300f8
:1008d0000203be000800a0000804440089844c0004
:1008e000f6ff3900c639dd008301730001003200d4
:1008f000130020008904d1000884d3000998a300c4
:10090000050032000800a7000300a0008904d10000
:100910000884d3008b05e8008904d1000884d30043
:100920000001eb000281d2005200070001f0a1009b
:100930000cf0a70001f0a0009a0037006420e1004d
:100940009c0032000801be000200be00f7ff370025
:100950006120e100970032006000b800f3ff37002b
:100960000000200001f82700f0ff370014002000ed
:10097000c7003700f4ff2f00c50037000001be009c
:10098000620007000470a70003f0a1006509b10030
:10099000160032000d0035006828e1000600350021
:1009a000f0ff2f00f1ff27000300e00013003b00e1
:1009b0000100280000000500000040008180480080
:1009c0008502e900fcff3a0008003700f88f42007a
:1009d00002003c008000eb00000005008100d10017
:1009e0000080d3008502e800fcff3a000300e0002d
:1009f00002003b0060001000e080180000000600cc
:100a00000001be00410007000470a70003f0a10030
:100a100003f8a30013003a006509b100100032008a
:100a2000090035006928e1000200350001002800b6
:100a30000000050000004000818048008502e900b8
:100a4000fcff3a0000000600f88f42000500350068
:100a50008100d1000080d3008502e800fcff3a004d
:100a6000000006008000eb00000005006011b800e7
:100a7000a200370081002000618055000b003d007e
:100a80000b00200061fe2f000100e1001d0034007a
:100a900082817100610164008904d1000884d3005f
:100aa0000000e800faff3a007100200061006400d5
:100ab000030070000200600009003200610444007d
:100ac000e0844c000988a500050032008b05e80091
:100ad0006808e10002003a008904d1000884d300cc
:100ae000f20f20000258e10005003d00c75ddd0067
:100af000f907b20089807500080078000000060040
:100b00000bf827008b00780000000500c70ade0004
:100b1000f107b200f50fb20008003200e1cf420049
:100b2000020032000170a00024000500810f700057
:100b3000010032000408050044000500810f700028
:100b400002003a00140005008502e90000004000a0
:100b500081c04800fcff3b000170a000240005009c
:100b60000004be00e9ff07000003be000405be004c
:100b70000200be00e5ff0700844f7500000006007c
:100b80000200be006450e100050036006420e10070
:100b9000020036000968a30001003a000800be0008
:100ba0000160a0004f0678004f05be004f04be0054
:100bb00000000600f0ff2f00f1ff2700f9ff3700cb
:100bc000889fbe008a9fbe008c1f7800e4ff07004c
:100bd000ebff330003866c006450e1002400320018
:100be0006420e100270032006150e1002200320061
:100bf0006120e100210032008b854200eb07b1004b
:100c00000134b800003ab8000804420089844a0060
:100c1000013ab8000030b8008880400009014a005d
:100c200004003300000040008180480002014900b8
:100c30008b05e900c909dd00830170000100320065
:100c400013002000c814de004814dd004709de0050
:100c50001200b200c808de000884700085ff07009b
:100c600001f0a1000cf0a70001f0a000cdff3700bb
:100c70006120e100cfff32000801be000200be008b
:100c8000f7ff37006150e100fcff3a00c9ff370071
:100c9000889fbe008a9fbe00841f7800b0ff0700b7
:100ca0004f00780011003300f0ff2f00838f6c009d
:100cb00006003b00040565000a00a7000800370095
:100cc00009f0a6001000200008003700820f540031
:100cd000838f5c00030039001000200001003e00fb
:100ce0000000200009f0a7000000ea004f05be0048
:100cf0004f04be000000e00000000600889fbe0018
:100d00008a9fbe000082700004027100048271009c
:100d1000260032000004be000200be006011b800d0
:100d20006b092000950220000182cf000a003900e3
:100d30000541b1000082cf00070039000541b10034
:100d40000982cf00040039000541b1000882cf00bc
:100d5000010039000541b100054252001200320085
:100d60000a003b0082817100610164008100d100b2
:100d70000080d3008984d3000884d3008b05e80069
:100d80000442e800f7ff3a00070037000804440077
:100d900089844c0000004800818048008b05e900f0
:100da0000442e900f9ff3a0032ff07004f05be0098
:080db0004f04be000000060024
:020000040000fa
:100db8000600fa00881f7800f50a0700340b0700c0
:100dc800a90a07004e090700350807004e08070062
:100dd8005808070064cea80064eea800254ea800b5
:100de8000100370000000000e10a0700e14f500051
:100df800fcff3a00e20a0700d90a0700000f780052
:100e08009e00780066804000100078008000eb00ab
:100e180014ff0700323323003305240066ff070060
:100e280002002f00f35724008cfe0700d2cc2c00c0
:100e3800c304240060ff07001007980021079800ea
:100e48001e019000ae0190000000200081202400c7
:100e580082fe070002002000030a240021fe07008a
:100e680080818800918188009e007800648040001d
:100e7800100078008000eb00fafe070032332300f0
:100e8800330524004cff070002002f00f35724000d
:100e980072fe0700d2cc2c00c304240046ff0700d2
:100ea80010079800210798001e019000ae019000dd
:100eb800000020008120240068fe070002002000b6
:100ec800030a240007fe070020818800318188007a
:100ed8001e007800100078008000eb00e1fe07009b
:100ee800323323003305240033ff070002002f00ac
:100ef800f357240059fe0700d2cc2c00c304240069
:100f08002dff070010079800210798001e01900088
:100f1800ae01900000002000812024004ffe070051
:100f280002002000030a2400eefd0700608188000b
:100f3800718188001e80e800100078008000eb00b6
:100f4800c8fe070032332300330524001aff0700c8
:100f580002002f00f357240040fe0700d2cc2c00db
:100f6800c304240014ff0700100798002107980005
:100f78001e019000ae019000000020008120240096
:100f880036fe070002002000030a2400d5fd0700f2
:100f980000818800118188009e00780068804000e8
:100fa800100078008000eb00aefe0700323323000b
:100fb8003305240000ff070002002f00f357240028
:100fc80026fe0700d2cc2c00c3042400fafe07003a
:100fd80010079800210798001e019000ae019000ac
:100fe80000002000812024001cfe070002002000d1
:100ff800030a2400bbfd0700408188005181880056
:10100800008180001181800018c0b3000200200018
:10101800031f240053fe07000000e0000100350014
:101028000044eb000804e00002003200254ea8004e
:1010380001003700254ea900208180003181800001
:1010480018c0b30002002000031f240045fe07005b
:101058000000e000010035000044eb000804e00057
:101068000200320064eea8000100370064eea90017
:10107800408180005181800018c0b3000200200028
:10108800031f240037fe07000000e00001003500c0
:101098000044eb000804e0000200320064cea8001f
:1010a80051ff370064cea9004fff37000000fa0057
:1010b8000cd0bf000080fb00cf80de00f2002000d3
:1010c80003002000820f5000838f58006c003e0000
:1010d800000601000f00370018003700190037001c
:1010e80023003700240037002e0037002f00370078
:1010f800390037003a003700440037004500370010
:101108004f0037005e0037005d0037004e003700a3
:10111800580037000030ef000230ef000041eb00cc
:101128006000b8003309070012c0b3006000b800bf
:101138003009070010c0b3000cf0b70054000700d6
:10114800510037000041eb0000002000811c240002
:101158002809070012c0b30000002000811c2400e9
:101168002409070030c0b3000cf0b7004600370070
:1011780047000700440037000041eb000000200052
:10118800011724001b09070012c0b300000020004b
:10119800010a2c001709070050c0b3000cf0b70073
:1011a800390037003a000700370037000041eb00ec
:1011b80000002000010a2c000e09070012c0b3002d
:1011c80000002000011724000a09070070c0b300be
:1011d8000cf0b7002c0037002d0007002a0037005c
:1011e8000041eb000000200001172400010907005e
:1011f80012c0b3000000200001172c00fd080700f2
:1012080090c0b3000cf0b7001f00370020000700a3
:101218001d0037000041eb000000200001122c00e7
:10122800f408070012c0b3000000200001122400d7
:10123800f0080700b0c0b3000cf0b7001200370088
:1012480013000700100037000041eb0000002000e9
:10125800811c2c00e708070012c0b3000000200022
:10126800811c2c00e3080700f0c0b3000cf0b700a5
:101278000500370080c0b3000cf0b700020037004b
:101288000c70ef00000000000080fa00000006006b
:101298000200fa00881f78000040eb00004f780039
:1012a800008180001181800018c0b3000200200076
:1012b800c3202400abfd07000000e000010035005a
:1012c8000044eb000804e0002f0032002081800079
:1012d8003181800018c0b30002002000031f2400e1
:1012e800a2fd07000000e00001003c000044eb0004
:1012f8000804e00024003200408180005181800011
:1013080018c0b30002002000c320240097fd070086
:101318000000e00001003c000044eb000804e0008d
:1013280019003200608180007181800018c0b3000c
:1013380002002000031a24008cfd07000000e000d2
:1013480001003c000044eb000804e0000e003200fd
:10135800808180009181800018c0b30002002000c5
:10136800031a240081fd07000000e00001003c0092
:101378000044eb000804e0000300320020c0b30082
:10138800004f7800910637000081800011818000ad
:1013980018c0b30002002000c320240073fd07001a
:1013a8000000e00001003c000044eb000804e000fd
:1013b8002f003200208180003181800018c0b300e6
:1013c80002002000031f240068fd07000000e00061
:1013d80001003c000044eb000804e0002400320057
:1013e800408180005181800018c0b30002002000b5
:1013f800c32024005bfd07000000e0000100350069
:101408000044eb000804e00019003200608180000d
:101418007181800018c0b30002002000031a240064
:1014280052fd07000000e00001003c000044eb0012
:101438000804e0000e003200808180009181800065
:1014480018c0b30002002000031a240047fd07005b
:101458000000e00001003c000044eb000804e0004c
:101468000300320010c0b300004f78005706370061
:10147800008180001181800018c0b30002002000a4
:10148800c320240039fd07000000e00001003c00f3
:101498000044eb000804e0002f00320020818000a7
:1014a8003181800018c0b30002002000031f24000f
:1014b8002cfd07000000e000010035000044eb00af
:1014c8000804e0002400320040818000518180003f
:1014d80018c0b30002002000c320240023fd070029
:1014e8000000e00001003c000044eb000804e000bc
:1014f80019003200608180007181800018c0b3003b
:1015080002002000031a240018fd07000000e00074
:1015180001003c000044eb000804e0000e0032002b
:10152800808180009181800018c0b30002002000f3
:10153800031a24000dfd07000000e00001003c0034
:101548000044eb000804e0000300320030c0b300a0
:10155800004f78001d06370000818000118180004f
:1015680018c0b30002002000c3202400fffc0700bd
:101578000000e00001003c000044eb000804e0002b
:101588002f003200208180003181800018c0b30014
:1015980002002000031f2400f4fc07000000e00004
:1015a80001003c000044eb000804e0002400320085
:1015b800408180005181800018c0b30002002000e3
:1015c800c3202400e9fc07000000e00001003c0003
:1015d8000044eb000804e00019003200608180003c
:1015e8007181800018c0b30002002000031a240093
:1015f800defc07000000e00001003c000044eb00b6
:101608000804e0000e003200808180009181800093
:1016180018c0b30002002000031a2400d3fc0700fe
:101628000000e00001003c000044eb000804e0007a
:10163800030032000040eb00004f7800e30537005c
:10164800008180001181800018c0b30002002000d2
:10165800c3202400c5fc07000000e00001003c0096
:101668000044eb000804e0002f00320020818000d5
:101678003181800018c0b30002002000031f24003d
:10168800bafc07000000e00001003c000044eb0049
:101698000804e0002400320040818000518180006d
:1016a80018c0b30002002000c3202400affc0700cc
:1016b8000000e00001003c000044eb000804e000ea
:1016c80019003200608180007181800018c0b30069
:1016d80002002000031a2400a2fc07000000e0001a
:1016e800010035000044eb000804e0000e00320061
:1016f800808180009181800018c0b3000200200022
:10170800031a240099fc07000000e00001003c00d7
:101718000044eb000804e0000300320040c0b300be
:10172800004f7800a90537000081800011818000f2
:1017380018c0b30002002000c32024008bfc07005f
:101748000000e00001003c000044eb000804e00059
:101758002f003200208180003181800018c0b30042
:1017680002002000031f240080fc07000000e000a6
:1017780001003c000044eb000804e00024003200b3
:10178800408180005181800018c0b3000200200011
:10179800c320240075fc07000000e00001003c00a5
:1017a8000044eb000804e00019003200608180006a
:1017b8007181800018c0b30002002000031a2400c1
:1017c8006afc07000000e00001003c000044eb0058
:1017d8000804e0000e0032008081800091818000c2
:1017e80018c0b30002002000031a24005dfc0700a3
:1017f8000000e000010035000044eb000804e000b0
:101808000300320050c0b300004f78006f05370066
:10181800008180001181800018c0b3000200200000
:10182800c32024004ffc07000000e0000100350041
:101838000044eb000804e0002f0032002081800003
:101848003181800018c0b30002002000031f24006b
:1018580046fc07000000e00001003c000044eb00eb
:101868000804e0002400320040818000518180009b
:1018780018c0b30002002000c32024003bfc07006e
:101888000000e00001003c000044eb000804e00018
:1018980019003200608180007181800018c0b30097
:1018a80002002000031a24002efc07000000e000bc
:1018b800010035000044eb000804e0000e0032008f
:1018c800808180009181800018c0b3000200200050
:1018d800031a240025fc07000000e00001003c007a
:1018e8000044eb000804e0000300320020c0b3000d
:1018f800004f780035053700008180001181800095
:1019080018c0b30002002000c320240017fc070001
:101918000000e00001003c000044eb000804e00087
:101928002f003200208180003181800018c0b30070
:1019380002002000031f24000cfc07000000e00048
:1019480001003c000044eb000804e00024003200e1
:10195800408180005181800018c0b300020020003f
:10196800c3202400fffb07000000e0000100350051
:101978000044eb000804e000190032006081800098
:101988007181800018c0b30002002000031a2400ef
:10199800f6fb07000000e00001003c000044eb00fb
:1019a8000804e0000e0032008081800091818000f0
:1019b80018c0b30002002000031a2400e9fb070046
:1019c8000000e000010035000044eb000804e000de
:1019d8000300320010c0b300004f7800fb0437004a
:1019e800008180001181800018c0b300020020002f
:1019f800c3202400ddfb07000000e00001003c00dc
:101a08000044eb000804e0002f0032002081800031
:101a18003181800018c0b30002002000031f240099
:101a2800d0fb07000000e000010035000044eb0097
:101a38000804e000240032004081800051818000c9
:101a480018c0b30002002000c3202400c7fb070011
:101a58000000e00001003c000044eb000804e00046
:101a680019003200608180007181800018c0b300c5
:101a780002002000031a2400bcfb07000000e0005d
:101a880001003c000044eb000804e0000e003200b6
:101a9800808180009181800018c0b300020020007e
:101aa800031a2400affb07000000e0000100350026
:101ab8000044eb000804e0000300320050c0b3000b
:101ac800004f7800c1043700008180001181800038
:101ad80018c0b30002002000c3202400a3fb0700a5
:101ae8000000e00001003c000044eb000804e000b6
:101af8002f003200208180003181800018c0b3009f
:101b080002002000031f240096fb07000000e000ed
:101b1800010035000044eb000804e0002400320016
:101b2800408180005181800018c0b300020020006d
:101b3800c32024008dfb07000000e00001003c00ea
:101b48000044eb000804e0001900320060818000c6
:101b58007181800018c0b30002002000031a24001d
:101b680080fb07000000e000010035000044eb00a6
:101b78000804e0000e00320080818000918180001e
:101b880018c0b30002002000031a240077fb0700e6
:101b98000000e00001003c000044eb000804e00005
:101ba8000300320040c0b300004f780087043700bc
:101bb800008180001181800018c0b300020020005d
:101bc800c320240067fb07000000e0000100350087
:101bd8000044eb000804e0002f0032002081800060
:101be8003181800018c0b30002002000031f2400c8
:101bf8005cfb07000000e000010035000044eb003a
:101c08000804e000240032004081800051818000f7
:101c180018c0b30002002000c320240053fb0700b3
:101c28000000e00001003c000044eb000804e00074
:101c380019003200608180007181800018c0b300f3
:101c480002002000031a240048fb07000000e000ff
:101c580001003c000044eb000804e0000e003200e4
:101c6800808180009181800018c0b30002002000ac
:101c7800031a24003dfb07000000e00001003c00bf
:101c88000044eb000804e0000300320020c0b30069
:101c9800004f78004d0437000081800011818000da
:101ca80018c0b30002002000c32024002ffb070047
:101cb8000000e00001003c000044eb000804e000e4
:101cc8002f003200208180003181800018c0b300cd
:101cd80002002000031f240022fb07000000e00090
:101ce800010035000044eb000804e0002400320045
:101cf800408180005181800018c0b300020020009c
:101d0800c320240017fb07000000e0000100350095
:101d18000044eb000804e0001900320060818000f4
:101d28007181800018c0b30002002000031a24004b
:101d38000efb07000000e00001003c000044eb003f
:101d48000804e0000e00320080818000918180004c
:101d580018c0b30002002000031a240003fb070088
:101d68000000e00001003c000044eb000804e00033
:101d78000300320010c0b300004f7800130437008e
:101d8800008180001181800018c0b300020020008b
:101d9800c3202400f3fa07000000e000010035002a
:101da8000044eb000804e0002f003200208180008e
:101db8003181800018c0b30002002000031f2400f6
:101dc800e8fa07000000e000010035000044eb00dd
:101dd8000804e00024003200408180005181800026
:101de80018c0b30002002000c3202400dffa070057
:101df8000000e00001003c000044eb000804e000a3
:101e080019003200608180007181800018c0b30021
:101e180002002000031a2400d2fa07000000e000a4
:101e2800010035000044eb000804e0000e00320019
:101e3800808180009181800018c0b30002002000da
:101e4800031a2400c9fa07000000e00001003c0062
:101e58000044eb000804e0000300320020c0b30097
:101e6800004f7800d903370000818000118180007d
:101e780018c0b30002002000c3202400bbfa0700ea
:101e88000000e00001003c000044eb000804e00012
:101e98002f003200208180003181800018c0b300fb
:101ea80002002000031f2400aefa07000000e00033
:101eb800010035000044eb000804e0002400320073
:101ec800408180005181800018c0b30002002000ca
:101ed800c3202400a3fa07000000e0000100350039
:101ee8000044eb000804e000190032006081800023
:101ef8007181800018c0b30002002000031a24007a
:101f08009afa07000000e00001003c000044eb00e2
:101f18000804e0000e00320080818000918180007a
:101f280018c0b30002002000031a24008dfa07002d
:101f38000000e000010035000044eb000804e00068
:101f48000300320010c0b300004f78009f03370031
:101f5800008180001181800018c0b30002002000b9
:101f6800c32024007ffa07000000e00001003500cc
:101f78000044eb000804e0002f00320020818000bc
:101f88003181800018c0b30002002000031f240024
:101f980074fa07000000e000010035000044eb007f
:101fa8000804e00024003200408180005181800054
:101fb80018c0b30002002000c320240069fa0700fb
:101fc8000000e000010035000044eb000804e000d8
:101fd80019003200608180007181800018c0b30050
:101fe80002002000031a240060fa07000000e00045
:101ff80001003c000044eb000804e0000e00320041
:10200800808180009181800018c0b3000200200008
:10201800031a240055fa07000000e00001003c0004
:102028000044eb000804e0000300320030c0b300b5
:10203800004f78006503370000818000118180001f
:1020480018c0b30002002000c320240047fa07008c
:102058000000e00001003c000044eb000804e00040
:102068002f003200208180003181800018c0b30029
:1020780002002000031f24003cfa07000000e000d3
:1020880001003c000044eb000804e000240032009a
:10209800408180005181800018c0b30002002000f8
:1020a800c32024002ffa07000000e00001003500db
:1020b8000044eb000804e000190032006081800051
:1020c8007181800018c0b30002002000031a2400a8
:1020d80024fa07000000e000010035000044eb008e
:1020e8000804e0000e0032008081800091818000a9
:1020f80018c0b30002002000031a24001bfa0700ce
:102108000000e00001003c000044eb000804e0008f
:102118000300320020c0b300004f78002b033700c3
:10212800008180001181800018c0b30002002000e7
:10213800c32024000bfa07000000e000010035006e
:102148000044eb000804e0002f00320020818000ea
:102158003181800018c0b30002002000031f240052
:1021680002fa07000000e00001003c000044eb0018
:102178000804e00024003200408180005181800082
:1021880018c0b30002002000c3202400f7f907009c
:102198000000e00001003c000044eb000804e000ff
:1021a80019003200608180007181800018c0b3007e
:1021b80002002000031a2400ecf907000000e000e8
:1021c80001003c000044eb000804e0000e0032006f
:1021d800808180009181800018c0b3000200200037
:1021e800031a2400dff907000000e00001003500b1
:1021f8000044eb000804e0000300320010c0b30004
:10220800004f7800f10237000081800011818000c2
:1022180018c0b30002002000c3202400d1f9070031
:102228000000e000010035000044eb000804e00075
:102238002f003200208180003181800018c0b30057
:1022480002002000031f2400c8f907000000e00076
:1022580001003c000044eb000804e00024003200c8
:10226800408180005181800018c0b3000200200026
:10227800c3202400bbf907000000e000010035007e
:102288000044eb000804e00019003200608180007f
:102298007181800018c0b30002002000031a2400d6
:1022a800b2f907000000e00001003c000044eb0028
:1022b8000804e0000e0032008081800091818000d7
:1022c80018c0b30002002000031a2400a7f9070071
:1022d8000000e00001003c000044eb000804e000be
:1022e8000300320030c0b300004f7800b702370057
:1022f800008180001181800018c0b3000200200016
:10230800c320240097f907000000e0000100350011
:102318000044eb000804e0002f0032002081800018
:102328003181800018c0b30002002000031f240080
:102338008ef907000000e00001003c000044eb00bb
:102348000804e000240032004081800051818000b0
:1023580018c0b30002002000c320240081f9070040
:102368000000e000010035000044eb000804e00034
:1023780019003200608180007181800018c0b300ac
:1023880002002000031a240078f907000000e0008a
:1023980001003c000044eb000804e0000e0032009d
:1023a800808180009181800018c0b3000200200065
:1023b800031a24006bf907000000e0000100350053
:1023c8000044eb000804e0000300320010c0b30032
:1023d800004f78007d023700008180001181800065
:1023e80018c0b30002002000c32024005df90700d4
:1023f8000000e000010035000044eb000804e000a4
:102408002f003200208180003181800018c0b30085
:1024180002002000031f240054f907000000e00018
:1024280001003c000044eb000804e00024003200f6
:10243800408180005181800018c0b3000200200054
:10244800c320240047f907000000e0000100350020
:102458000044eb000804e0001900320060818000ad
:102468007181800018c0b30002002000031a240004
:102478003cf907000000e000010035000044eb00d3
:102488000804e0000e003200808180009181800005
:1024980018c0b30002002000031a240033f9070013
:1024a8000000e00001003c000044eb000804e000ec
:1024b8000300320020c0b300004f78004302370009
:1024c800008180001181800018c0b3000200200044
:1024d800c320240023f907000000e00001003500b4
:1024e8000044eb000804e0002f0032002081800047
:1024f8003181800018c0b30002002000031f2400af
:1025080018f907000000e000010035000044eb0066
:102518000804e000240032004081800051818000de
:1025280018c0b30002002000c32024000ff90700e0
:102538000000e00001003c000044eb000804e0005b
:1025480019003200608180007181800018c0b300da
:1025580002002000031a240004f907000000e0002c
:1025680001003c000044eb000804e0000e003200cb
:10257800808180009181800018c0b3000200200093
:10258800031a2400f7f807000000e00001003500f6
:102598000044eb000804e0000300320010c0b30060
:1025a800004f780009023700008180001181800007
:1025b80018c0b30002002000c3202400ebf8070075
:1025c8000000e00001003c000044eb000804e000cb
:1025d8002f003200208180003181800018c0b300b4
:1025e80002002000031f2400def807000000e000be
:1025f800010035000044eb000804e000240032002c
:10260800408180005181800018c0b3000200200082
:10261800c3202400d3f807000000e00001003500c3
:102628000044eb000804e0001900320060818000db
:102638007181800018c0b30002002000031a240032
:10264800c8f807000000e000010035000044eb0076
:102658000804e0000e003200808180009181800033
:1026680018c0b30002002000031a2400bff80700b6
:102678000000e00001003c000044eb000804e0001a
:102688000300320020c0b300004f7800cf013700ac
:10269800008180001181800018c0b3000200200072
:1026a800c3202400b1f807000000e00001003c004e
:1026b8000044eb000804e0002f0032002081800075
:1026c8003181800018c0b30002002000031f2400dd
:1026d800a4f807000000e000010035000044eb000a
:1026e8000804e0002400320040818000518180000d
:1026f80018c0b30002002000c320240099f8070086
:102708000000e000010035000044eb000804e00090
:1027180019003200608180007181800018c0b30008
:1027280002002000031a24008ef807000000e000d1
:10273800010035000044eb000804e0000e00320000
:10274800808180009181800018c0b30002002000c1
:10275800031a240083f807000000e0000100350098
:102768000044eb000804e0000300320010c0b3008e
:10277800004f7800950137000081800011818000aa
:1027880018c0b30002002000c320240075f8070019
:102798000000e000010035000044eb000804e00000
:1027a8002f003200208180003181800018c0b300e2
:1027b80002002000031f24006af807000000e00060
:1027c800010035000044eb000804e000240032005a
:1027d800408180005181800018c0b30002002000b1
:1027e800c320240061f807000000e00001003c005d
:1027f8000044eb000804e00019003200608180000a
:102808007181800018c0b30002002000031a240060
:1028180054f807000000e000010035000044eb0018
:102828000804e0000e003200808180009181800061
:1028380018c0b30002002000031a240049f807005a
:102848000000e000010035000044eb000804e0004f
:102858000300320020c0b300004f78005b0137004e
:10286800008180001181800018c0b30002002000a0
:10287800c32024003df807000000e00001003c00f0
:102888000044eb000804e0002f00320020818000a3
:102898003181800018c0b30002002000031f24000b
:1028a80032f807000000e00001003c000044eb00a3
:1028b8000804e0002400320040818000518180003b
:1028c80018c0b30002002000c320240027f8070026
:1028d8000000e00001003c000044eb000804e000b8
:1028e80019003200608180007181800018c0b30037
:1028f80002002000031a24001af807000000e00074
:10290800010035000044eb000804e0000e0032002e
:10291800808180009181800018c0b30002002000ef
:10292800031a24000ff807000000e000010035003a
:102938000044eb000804e0000300320030c0b3009c
:10294800004f78002101370000818000118180004c
:1029580018c0b30002002000c320240003f80700b9
:102968000000e00001003c000044eb000804e00027
:102978002f003200208180003181800018c0b30010
:1029880002002000031f2400f8f707000000e00001
:1029980001003c000044eb000804e0002400320081
:1029a800408180005181800018c0b30002002000df
:1029b800c3202400ebf707000000e0000100350009
:1029c8000044eb000804e000190032006081800038
:1029d8007181800018c0b30002002000031a24008f
:1029e800e0f707000000e000010035000044eb00bc
:1029f8000804e0000e003200808180009181800090
:102a080018c0b30002002000031a2400d5f70700fd
:102a18000000e000010035000044eb000804e0007d
:102a28000300320030c0b300004f7800e7003700e1
:102a3800008180001181800018c0b30002002000ce
:102a4800c3202400c7f707000000e000010035009c
:102a58000044eb000804e0002f00320020818000d1
:102a68003181800018c0b30002002000031f240039
:102a7800bef707000000e00001003c000044eb0046
:102a88000804e00024003200408180005181800069
:102a980018c0b30002002000c3202400b3f70700c9
:102aa8000000e00001003c000044eb000804e000e6
:102ab80019003200608180007181800018c0b30065
:102ac80002002000031a2400a6f707000000e00017
:102ad800010035000044eb000804e0000e0032005d
:102ae800808180009181800018c0b300020020001e
:102af800031a24009bf707000000e00001003500de
:102b08000044eb000804e0000300320030c0b300ca
:102b1800004f7800ad0037000081800011818000ef
:102b280018c0b30002002000c32024008ff707005c
:102b38000000e00001003c000044eb000804e00055
:102b48002f003200208180003181800018c0b3003e
:102b580002002000031f240082f707000000e000a5
:102b6800010035000044eb000804e00024003200b6
:102b7800408180005181800018c0b300020020000d
:102b8800c320240079f707000000e00001003c00a2
:102b98000044eb000804e000190032006081800066
:102ba8007181800018c0b30002002000031a2400bd
:102bb8006cf707000000e000010035000044eb005e
:102bc8000804e0000e0032008081800091818000be
:102bd80018c0b30002002000031a240061f70700a0
:102be8000000e000010035000044eb000804e000ac
:102bf8000300320030c0b300004f78007300370084
:102c0800008180001181800018c0b30002002000fc
:102c1800c320240053f707000000e000010035003e
:102c28000044eb000804e0002f00320020818000ff
:102c38003181800018c0b30002002000031f240067
:102c48004af707000000e00001003c000044eb00e8
:102c58000804e00024003200408180005181800097
:102c680018c0b30002002000c32024003df707006d
:102c78000000e000010035000044eb000804e0001b
:102c880019003200608180007181800018c0b30093
:102c980002002000031a240032f707000000e000b9
:102ca800010035000044eb000804e0000e0032008b
:102cb800808180009181800018c0b300020020004c
:102cc800031a240027f707000000e0000100350080
:102cd8000044eb000804e0000300320030c0b300f9
:102ce800004f780039003700008180001181800092
:102cf80018c0b30002002000c320240019f7070001
:102d08000000e000010035000044eb000804e0008a
:102d18002e003200208180003181800018c0b3006d
:102d280002002000031f24000ef707000000e00047
:102d3800010035000044eb000804e00023003200e5
:102d4800408180005181800018c0b300020020003b
:102d5800c320240003f707000000e000010035004d
:102d68000044eb000804e000180032006081800095
:102d78007181800018c0b30002002000031a2400eb
:102d8800f8f607000000e000010035000044eb0001
:102d98000804e0000d0032008081800091818000ed
:102da80018c0b30002002000031a2400edf6070043
:102db8000000e000010035000044eb000804e000da
:102dc8000200320030c0b300004f78001e40780087
:102dd8000004e00003003a0020c0b3000df0b70083
:102de800230037001e407800e24f500003003a00ed
:102df80080c0b3000df0b7001d0037001e407800fa
:102e0800e14f500003003a00a0c0b3000df0b70036
:102e1800170037001e407800e34f500003003a00c7
:102e280080c0b3000df0b700110037001e407800d5
:102e3800e44f500003003a0040c0b3000df0b70063
:102e48000b0037001e407800e54f500003003a00a1
:102e580060c0b3000df0b700050037001e407800d1
:102e6800e64f500002003a00e0c0b3000df0b70092
:102e78000dd0bf008080fb000cd0bf000080fb009d
:102e88000000e900808f5000020032000dd0bf0022
:102e98000cf0b7004f0478000080fa00000006002c
:102ea8000000fa0013e1a90011e1a9001061a800cf
:102eb8001021a90081088000f0fc2f00008060002c
:102ec8000040a000800888000a21ef000621ef00da
:102ed800101220007008880000d0220060088800c6
:102ee8002142800080ff2f00008060000000a000c9
:102ef800204288000108a9002108a80011e1a800c3
:102f08000080fa00000006000000fa0005e1a900b0
:102f18000000200081242400110007000421a900da
:102f28000068a9002068a80005e1a8000080fa0050
:102f3800000006000000fa001fe1a90000002000c0
:102f4800a14724007a0007001e21a9000368a900f0
:102f58002368a8001fe1a8000080fa00000006000e
:102f68000400fa00881f7800008fbe002108800046
:102f7800f0fc2f0000806000200888001e01780007
:102f88009e0190000068290081c1240033f60700e3
:102f980018c0b30002f02f00f377240073f607007f
:102fa8000000e00001003c000044eb000804e000e1
:102fb8005400320021088000f0fc2f0000806000df
:102fc8000040a000200888001e0178009e019000a3
:102fd8000068290081c1240020f6070002002000b3
:102fe800031024001df6070018c0b30002f02f00dc
:102ff800f37724005df607000000e00001003c00c4
:103008000044eb000804e000320032002108800090
:10301800f0fc2f00008060000050a000200888000d
:103028001e0178009e0190000068290081c12400db
:103038000af60700020020000328240007f607000c
:1030480018c0b30002f02f00f377240047f60700fa
:103058000000e00001003c000044eb000804e00030
:1030680010003200210880000003200001007000d9
:10307800200888001e0178009e0190000068290041
:1030880081c12400f5f50700020020000338240060
:10309800f2f5070037f607000000780010088800ee
:1030a800200037001e0178009e019000006829006a
:1030b80081c12400e9f5070002002000032824004c
:1030c800e6f507002bf607000000780010088800d6
:1030d800140037001e0178009e0190000068290046
:1030e80081c12400ddf50700020020000310240040
:1030f800daf507001ff607000000780010088800be
:10310800080037001e0178009e0190000068290021
:1031180081c12400d1f5070016f6070000007800e9
:10312800100888004f0478000080fa0000000600ac
:103138000400fa00881f7800008fbe002108800074
:10314800f0fc2f0000806000200888001e01780035
:103158009e0190000068290081c12400bff5070086
:1031680018c0b30002f02f00f3772400fff5070022
:103178000000e00001003c000044eb000804e0000f
:103188005400320021088000f0fc2f00008060000d
:103198000040a000200888001e0178009e019000d1
:1031a8000068290081c12400acf507000200200056
:1031b80003102400a9f5070018c0b30002f02f007f
:1031c800f3772400e9f507000000e00001003c0067
:1031d8000044eb000804e0003200320021088000bf
:1031e800f0fc2f00008060000050a000200888003c
:1031f8001e0178009e0190000068290081c124000a
:1032080096f50700020020000328240093f5070024
:1032180018c0b30002f02f00f3772400d3f507009d
:103228000000e00001003c000044eb000804e0005e
:103238001000320021088000000320000100700007
:10324800200888001e0178009e019000006829006f
:1032580081c1240081f50700020020000338240002
:103268007ef50700c3f50700000078001008880005
:10327800200037001e0178009e0190000068290098
:1032880081c1240075f507000200200003282400ee
:1032980072f50700b7f507000000780010088800ed
:1032a800140037001e0178009e0190000068290074
:1032b80081c1240069f507000200200003102400e2
:1032c80066f50700abf507000000780010088800d5
:1032d800080037001e0178009e0190000068290050
:1032e80081c124005df50700a2f507000000780001
:1032f800100888004f0478000080fa0000000600db
:103308000000fa001160800080ff2f00008060003c
:103318001060880000fa20002060880023aca80014
:10332800238ca80011618000f03f2f00008060000e
:1033380000a0a000106188003000200020618800f3
:10334800c3aca800c38ca80011668000f03f2f0012
:103358000080600000a0a0001066880030002000f7
:103368002066880001eca8000080fa000000060032
:103378000000fa00889fbe00e4808000f58080008d
:10338800c0808000d180800018c0b3000001be005a
:103398000400be0073f507000000e00001003500de
:1033a8000044eb000804e0000d003200c8808000f3
:1033b800d9808000e4808000f58080003080800023
:1033c800418080000001be000400be00c6f4070072
:1033d8000801be00cb000700e0808800f18088006b
:1033e800e4808000f5808000c0808000d18080006b
:1033f80018c0b3000001be000400be005bf5070062
:103408000000e00001003c000044eb000804e0007c
:103418000d003200c8808000d9808000e4808000e0
:10342800f580800030808000418080000001be006f
:103438000400be00abf407000801be0099000700b5
:10344800e0808800f1808800e0808000f1808000c2
:1034580018c0b3006011b80044f507000000e00090
:1034680001003c000044eb000804e00004003200c6
:10347800c3cca90024eea800c3eca80003003700c1
:10348800c3eca90024cea800c3cca800e08080002b
:10349800f18080006d000700020020000322240054
:1034a800c5f5070054f5070000007800306688006d
:1034b800a4808000b580800080808000918080009a
:1034c80018c0b3000001be000400be0025f50700c7
:1034d8000000e000010035000044eb000804e000b3
:1034e8000d0032008880800099808000a4808000d0
:1034f800b580800030808000418080000001be00df
:103508000400be0078f407000801be007d00070033
:10351800a0808800b1808800a4808000b5808000e9
:10352800808080009180800018c0b3000001be0038
:103538000400be000df507000000e00001003c009b
:103548000044eb000804e0000d0032008880800091
:1035580099808000a4808000b58080003080800041
:10356800418080000001be000400be005df4070039
:103578000801be004b000700a0808800b1808800c9
:10358800a0808000b180800018c0b3006011b8002e
:10359800f6f407000000e00001003c000044eb00e6
:1035a8000804e0000400320023cca90015eea800ae
:1035b80023eca8000300370023eca90015cea800cf
:1035c80023cca800a0808000b18080001f000700e5
:1035d800020020000322240077f5070006f5070003
:1035e80000007800306188004f04be000080fa00b7
:1035f800000006000600fa00008fbe00424798004f
:103608004e4090000080fb000000e0000700320000
:10361800e10f50000b003a001e0178009e01900057
:103628008280880093808800060037001e0078009a
:103638009e00900001f0a200c0808800d180880020
:10364800000000000080fa00000006000400fa00f4
:10365800881f7800008fbe0018c0b3006011b80042
:103668001e0078009e009000c0f407000000e000f3
:1036780001003d000044eb000804e00003003200b4
:103688001e0078009e009000030037001e0078009e
:103698009e00900001f0a2004f0478000080fa001c
:1036a800000006000800fa00881f7800008fbe009e
:1036b800220798003307980018c0b3002e01900025
:1036c800be0190001e0078009e009000a7f407003d
:1036d8000000e00001003c000044eb000804e000aa
:1036e800030032001e0078009e00900002003700a0
:1036f8002e009000be0090004f0478000080fa0071
:10370800000006000800fa00881f7800008fbe003d
:10371800220798003307980018c0b3002e019000c4
:10372800be0190001e0078009e0090008df40700f6
:103738000000e000010035000044eb000804e00050
:10374800030032001e0078009e009000020037003f
:103758002e009000be0090004f0478000080fa0010
:10376800000006000c00fa00881f7800008fbe00d9
:1037780022079800330798004407980055079800d7
:1037880018c0b3004e019000de0190001e007800c2
:103798009e00900075f407000000e00001003c0066
:1037a8000044eb000804e000040032004e019000e1
:1037b800de019000028fbe000e00370018c0b30073
:1037c8002e019000be0190001e0078009e0090001f
:1037d80064f407000000e000010035000044eb003d
:1037e8000804e000030032002e019000be019000a2
:1037f800028fbe001e0078009e0090004f047800e3
:103808000080fa00000006000400fa00008fbe00e5
:10381800b2fd2000930424001e0078009e00900052
:103828000ef407000200200043332400e2f40700ee
:103838000080fa00000006000400fa00008fbe00b5
:10384800b2fd2000930424001e0078009e00900022
:10385800d9f407000200200043332400fff30700d7
:103868000080fa00000006000000fa0021e3a90029
:103878002143a80001198000f0cf2f0000806000cc
:10388800001988002043a90001198000000e2000bb
:10389800010070000019880011198000f0ff210054
:1038a80000806000101988002343a80011198000c7
:1038b800f0cf2f00008060001019880011198000d7
:1038c80030f82f00008060000040a0001019880028
:1038d8002203a9002223a90025e3a900f0c0b30010
:1038e80024e3b70021198000f00f2e0080806000cb
:1038f80000f0200001007000201988003303a9009f
:103908002e0ea8002f6ea8006f2ea8001e2ea8004d
:103918004feea8003063a80030c3a8003163a800a8
:103928002e03a80031e3a8004119800000fc2f00f5
:10393800008060004019880028e3a90001a8a900b8
:1039480021a8a80021e3a8000080fa0000000600d2
:103958000000fa002023a8000080fa0000000600fa
:103968000000fa00400321000080fa000000060071
:103978000000fa000bd0bf000080fa00000006002b
:103988000000fa000b70ef000080fa00000006004b
:103998000000fa00f0032000303a8800213a800045
:1039a800f0f32f0000806000203a8800213a800060
:1039b80000fe2f00008060000000a000203a880070
:1039c8001200200080072000a10920003374200085
:1039d800804978008149780082497800103a80004f
:1039e800000178000200a00060042000710520009a
:1039f8002374200080497800814978008249780042
:103a080000000000113a800000002700808060005c
:103a180000002100808f5000faff3a0000000000eb
:103a2800113a800000022000008060000000e000e1
:0c3a3800fbff32000080fa0000000600d6
:020000040000fa
:103a4400341000000a000000800000000a1000008a
:103a540002000000800000000610000004000000c6
:103a64008200000000002000410000000e10000051
:103a740026000000800000000c100000020000007e
:103a8400800000000010000006000000800000001c
:043a9400000000002e
:020000040000fa
:103a98000000fa000e2eef001e2eef002e2eef0073
:103aa8003e2eef004e2eef005e2eef006e2eef0042
:103ab800214ea90060cea90060eea90011cea90090
:103ac80011eea90020cea90020eea9000080fa007e
:043ad80000000600e4
:020000040000fa
:02000004000af0
:04afe000cfff00009f
:020000040000fa
:02000004000af0
:04afe400ffff00006b
:020000040000fa
:02000004000af0
:04afe8007fff0000e7
:020000040000fa
:02000004000af0
:04afec005fff000003
:020000040000fa
:02000004000af0
:04aff00038ff000026
:020000040000fa
:02000004000af0
:04aff400ffff00005b
:00000001FF
